{
  "_format": "hh-sol-artifact-1",
  "contractName": "BookSharing",
  "sourceName": "contracts/BookSharing.sol",
  "abi": [
    {
      "anonymous": false,
      "inputs": [
        {
          "indexed": true,
          "internalType": "uint256",
          "name": "id",
          "type": "uint256"
        },
        {
          "indexed": false,
          "internalType": "string",
          "name": "title",
          "type": "string"
        },
        {
          "indexed": false,
          "internalType": "string",
          "name": "author",
          "type": "string"
        },
        {
          "indexed": false,
          "internalType": "address",
          "name": "owner",
          "type": "address"
        }
      ],
      "name": "BookAdded",
      "type": "event"
    },
    {
      "inputs": [
        {
          "internalType": "string",
          "name": "_title",
          "type": "string"
        },
        {
          "internalType": "string",
          "name": "_author",
          "type": "string"
        }
      ],
      "name": "addBook",
      "outputs": [],
      "stateMutability": "nonpayable",
      "type": "function"
    },
    {
      "inputs": [
        {
          "internalType": "uint256",
          "name": "",
          "type": "uint256"
        }
      ],
      "name": "books",
      "outputs": [
        {
          "internalType": "uint256",
          "name": "id",
          "type": "uint256"
        },
        {
          "internalType": "address",
          "name": "owner",
          "type": "address"
        },
        {
          "internalType": "string",
          "name": "title",
          "type": "string"
        },
        {
          "internalType": "string",
          "name": "author",
          "type": "string"
        },
        {
          "internalType": "bool",
          "name": "isAvailable",
          "type": "bool"
        }
      ],
      "stateMutability": "view",
      "type": "function"
    },
    {
      "inputs": [
        {
          "internalType": "uint256",
          "name": "_id",
          "type": "uint256"
        }
      ],
      "name": "borrowBook",
      "outputs": [],
      "stateMutability": "nonpayable",
      "type": "function"
    },
    {
      "inputs": [],
      "name": "getAllBooks",
      "outputs": [
        {
          "components": [
            {
              "internalType": "uint256",
              "name": "id",
              "type": "uint256"
            },
            {
              "internalType": "address",
              "name": "owner",
              "type": "address"
            },
            {
              "internalType": "string",
              "name": "title",
              "type": "string"
            },
            {
              "internalType": "string",
              "name": "author",
              "type": "string"
            },
            {
              "internalType": "bool",
              "name": "isAvailable",
              "type": "bool"
            }
          ],
          "internalType": "struct BookSharing.Book[]",
          "name": "",
          "type": "tuple[]"
        }
      ],
      "stateMutability": "view",
      "type": "function"
    },
    {
      "inputs": [
        {
          "internalType": "uint256",
          "name": "_id",
          "type": "uint256"
        }
      ],
      "name": "getBook",
      "outputs": [
        {
          "components": [
            {
              "internalType": "uint256",
              "name": "id",
              "type": "uint256"
            },
            {
              "internalType": "address",
              "name": "owner",
              "type": "address"
            },
            {
              "internalType": "string",
              "name": "title",
              "type": "string"
            },
            {
              "internalType": "string",
              "name": "author",
              "type": "string"
            },
            {
              "internalType": "bool",
              "name": "isAvailable",
              "type": "bool"
            }
          ],
          "internalType": "struct BookSharing.Book",
          "name": "",
          "type": "tuple"
        }
      ],
      "stateMutability": "view",
      "type": "function"
    },
    {
      "inputs": [],
      "name": "getTotalBooks",
      "outputs": [
        {
          "internalType": "uint256",
          "name": "",
          "type": "uint256"
        }
      ],
      "stateMutability": "view",
      "type": "function"
    },
    {
      "inputs": [
        {
          "internalType": "uint256",
          "name": "_id",
          "type": "uint256"
        }
      ],
      "name": "returnBook",
      "outputs": [],
      "stateMutability": "nonpayable",
      "type": "function"
    },
    {
      "inputs": [],
      "name": "totalBooks",
      "outputs": [
        {
          "internalType": "uint256",
          "name": "",
          "type": "uint256"
        }
      ],
      "stateMutability": "view",
      "type": "function"
    }
  ],
  "bytecode": "0x608060405234801561001057600080fd5b50610db5806100206000396000f3fe608060405234801561001057600080fd5b50600436106100885760003560e01c80637e490a9e1161005b5780637e490a9e146100ea578063ca5140c9146100ff578063d8a7233e14610112578063e0ff5b8b1461012557600080fd5b8063354528e81461008d57806368744046146100ab57806368931b21146100cf5780636ec4f4bf146100e1575b600080fd5b610095610145565b6040516100a291906109b3565b60405180910390f35b6100be6100b9366004610a15565b610359565b6040516100a2959493929190610a2e565b6001545b6040519081526020016100a2565b6100d360015481565b6100fd6100f8366004610a15565b6104a5565b005b6100fd61010d366004610a15565b610584565b6100fd610120366004610b22565b610656565b610138610133366004610a15565b610755565b6040516100a29190610b86565b6060600060015467ffffffffffffffff81111561016457610164610a7f565b60405190808252806020026020018201604052801561019d57816020015b61018a6108d0565b8152602001906001900390816101825790505b50905060015b60015481116103535760008181526020818152604091829020825160a0810184528154815260018201546001600160a01b03169281019290925260028101805492939192918401916101f490610ba0565b80601f016020809104026020016040519081016040528092919081815260200182805461022090610ba0565b801561026d5780601f106102425761010080835404028352916020019161026d565b820191906000526020600020905b81548152906001019060200180831161025057829003601f168201915b5050505050815260200160038201805461028690610ba0565b80601f01602080910402602001604051908101604052809291908181526020018280546102b290610ba0565b80156102ff5780601f106102d4576101008083540402835291602001916102ff565b820191906000526020600020905b8154815290600101906020018083116102e257829003601f168201915b50505091835250506004919091015460ff16151560209091015282610325600184610bea565b8151811061033557610335610c03565b6020026020010181905250808061034b90610c19565b9150506101a3565b50919050565b60006020819052908152604090208054600182015460028301805492936001600160a01b039092169261038b90610ba0565b80601f01602080910402602001604051908101604052809291908181526020018280546103b790610ba0565b80156104045780601f106103d957610100808354040283529160200191610404565b820191906000526020600020905b8154815290600101906020018083116103e757829003601f168201915b50505050509080600301805461041990610ba0565b80601f016020809104026020016040519081016040528092919081815260200182805461044590610ba0565b80156104925780601f1061046757610100808354040283529160200191610492565b820191906000526020600020905b81548152906001019060200180831161047557829003601f168201915b5050506004909301549192505060ff1685565b806000811180156104b857506001548111155b6104fb5760405162461bcd60e51b815260206004820152600f60248201526e125b9d985b1a5908189bdbdac81251608a1b60448201526064015b60405180910390fd5b60008281526020819052604090206004015460ff166105685760405162461bcd60e51b815260206004820152602360248201527f426f6f6b206973206e6f7420617661696c61626c6520666f7220626f72726f77604482015262696e6760e81b60648201526084016104f2565b506000908152602081905260409020600401805460ff19169055565b8060008111801561059757506001548111155b6105d55760405162461bcd60e51b815260206004820152600f60248201526e125b9d985b1a5908189bdbdac81251608a1b60448201526064016104f2565b60008281526020819052604090206004015460ff16156106375760405162461bcd60e51b815260206004820152601960248201527f426f6f6b20697320616c726561647920617661696c61626c650000000000000060448201526064016104f2565b506000908152602081905260409020600401805460ff19166001179055565b6001805490600061066683610c19565b90915550506040805160a0810182526001805480835233602080850191825284860188815260608601889052608086018590526000938452908390529490912083518155905191810180546001600160a01b0319166001600160a01b0390931692909217909155915190919060028201906106e19082610c81565b50606082015160038201906106f69082610c81565b50608091909101516004909101805460ff19169115159190911790556001546040517f1b21a084171e969413e7fa4bdca9cc0d7e30569645a0c3625952fe3f630ef4fd9061074990859085903390610d41565b60405180910390a25050565b61075d6108d0565b60008281526020818152604091829020825160a0810184528154815260018201546001600160a01b03169281019290925260028101805492939192918401916107a590610ba0565b80601f01602080910402602001604051908101604052809291908181526020018280546107d190610ba0565b801561081e5780601f106107f35761010080835404028352916020019161081e565b820191906000526020600020905b81548152906001019060200180831161080157829003601f168201915b5050505050815260200160038201805461083790610ba0565b80601f016020809104026020016040519081016040528092919081815260200182805461086390610ba0565b80156108b05780601f10610885576101008083540402835291602001916108b0565b820191906000526020600020905b81548152906001019060200180831161089357829003601f168201915b50505091835250506004919091015460ff16151560209091015292915050565b6040518060a001604052806000815260200160006001600160a01b0316815260200160608152602001606081526020016000151581525090565b6000815180845260005b8181101561093057602081850181015186830182015201610914565b506000602082860101526020601f19601f83011685010191505092915050565b8051825260018060a01b0360208201511660208301526000604082015160a0604085015261098160a085018261090a565b90506060830151848203606086015261099a828261090a565b9150506080830151151560808501528091505092915050565b6000602080830181845280855180835260408601915060408160051b870101925083870160005b82811015610a0857603f198886030184526109f6858351610950565b945092850192908501906001016109da565b5092979650505050505050565b600060208284031215610a2757600080fd5b5035919050565b8581526001600160a01b038516602082015260a060408201819052600090610a589083018661090a565b8281036060840152610a6a818661090a565b91505082151560808301529695505050505050565b634e487b7160e01b600052604160045260246000fd5b600082601f830112610aa657600080fd5b813567ffffffffffffffff80821115610ac157610ac1610a7f565b604051601f8301601f19908116603f01168101908282118183101715610ae957610ae9610a7f565b81604052838152866020858801011115610b0257600080fd5b836020870160208301376000602085830101528094505050505092915050565b60008060408385031215610b3557600080fd5b823567ffffffffffffffff80821115610b4d57600080fd5b610b5986838701610a95565b93506020850135915080821115610b6f57600080fd5b50610b7c85828601610a95565b9150509250929050565b602081526000610b996020830184610950565b9392505050565b600181811c90821680610bb457607f821691505b60208210810361035357634e487b7160e01b600052602260045260246000fd5b634e487b7160e01b600052601160045260246000fd5b81810381811115610bfd57610bfd610bd4565b92915050565b634e487b7160e01b600052603260045260246000fd5b600060018201610c2b57610c2b610bd4565b5060010190565b601f821115610c7c57600081815260208120601f850160051c81016020861015610c595750805b601f850160051c820191505b81811015610c7857828155600101610c65565b5050505b505050565b815167ffffffffffffffff811115610c9b57610c9b610a7f565b610caf81610ca98454610ba0565b84610c32565b602080601f831160018114610ce45760008415610ccc5750858301515b600019600386901b1c1916600185901b178555610c78565b600085815260208120601f198616915b82811015610d1357888601518255948401946001909101908401610cf4565b5085821015610d315787850151600019600388901b60f8161c191681555b5050505050600190811b01905550565b606081526000610d54606083018661090a565b8281036020840152610d66818661090a565b91505060018060a01b038316604083015294935050505056fea26469706673582212205d5059235525043d61651af50e2bb82897c0b40265feeda8ee5ab6bfcc4801d064736f6c63430008110033",
  "linkReferences": {},
  "deployedLinkReferences": {}
}