{
  "_format": "hh-sol-artifact-1",
  "contractName": "BookSharing",
  "sourceName": "contracts/BookSharing.sol",
  "abi": [
    {
      "anonymous": false,
      "inputs": [
        {
          "indexed": true,
          "internalType": "uint256",
          "name": "id",
          "type": "uint256"
        },
        {
          "indexed": false,
          "internalType": "string",
          "name": "title",
          "type": "string"
        },
        {
          "indexed": false,
          "internalType": "string",
          "name": "author",
          "type": "string"
        },
        {
          "indexed": false,
          "internalType": "address",
          "name": "owner",
          "type": "address"
        }
      ],
      "name": "BookAdded",
      "type": "event"
    },
    {
      "inputs": [
        {
          "internalType": "string",
          "name": "_title",
          "type": "string"
        },
        {
          "internalType": "string",
          "name": "_author",
          "type": "string"
        }
      ],
      "name": "addBook",
      "outputs": [],
      "stateMutability": "nonpayable",
      "type": "function"
    },
    {
      "inputs": [
        {
          "internalType": "uint256",
          "name": "",
          "type": "uint256"
        }
      ],
      "name": "books",
      "outputs": [
        {
          "internalType": "uint256",
          "name": "id",
          "type": "uint256"
        },
        {
          "internalType": "address",
          "name": "owner",
          "type": "address"
        },
        {
          "internalType": "string",
          "name": "title",
          "type": "string"
        },
        {
          "internalType": "string",
          "name": "author",
          "type": "string"
        },
        {
          "internalType": "bool",
          "name": "isAvailable",
          "type": "bool"
        }
      ],
      "stateMutability": "view",
      "type": "function"
    },
    {
      "inputs": [
        {
          "internalType": "uint256",
          "name": "_id",
          "type": "uint256"
        }
      ],
      "name": "borrowBook",
      "outputs": [],
      "stateMutability": "nonpayable",
      "type": "function"
    },
    {
      "inputs": [],
      "name": "getAllBooks",
      "outputs": [
        {
          "components": [
            {
              "internalType": "uint256",
              "name": "id",
              "type": "uint256"
            },
            {
              "internalType": "address",
              "name": "owner",
              "type": "address"
            },
            {
              "internalType": "string",
              "name": "title",
              "type": "string"
            },
            {
              "internalType": "string",
              "name": "author",
              "type": "string"
            },
            {
              "internalType": "bool",
              "name": "isAvailable",
              "type": "bool"
            }
          ],
          "internalType": "struct BookSharing.Book[]",
          "name": "",
          "type": "tuple[]"
        }
      ],
      "stateMutability": "view",
      "type": "function"
    },
    {
      "inputs": [
        {
          "internalType": "uint256",
          "name": "_id",
          "type": "uint256"
        }
      ],
      "name": "getBook",
      "outputs": [
        {
          "components": [
            {
              "internalType": "uint256",
              "name": "id",
              "type": "uint256"
            },
            {
              "internalType": "address",
              "name": "owner",
              "type": "address"
            },
            {
              "internalType": "string",
              "name": "title",
              "type": "string"
            },
            {
              "internalType": "string",
              "name": "author",
              "type": "string"
            },
            {
              "internalType": "bool",
              "name": "isAvailable",
              "type": "bool"
            }
          ],
          "internalType": "struct BookSharing.Book",
          "name": "",
          "type": "tuple"
        }
      ],
      "stateMutability": "view",
      "type": "function"
    },
    {
      "inputs": [],
      "name": "getTotalBooks",
      "outputs": [
        {
          "internalType": "uint256",
          "name": "",
          "type": "uint256"
        }
      ],
      "stateMutability": "view",
      "type": "function"
    },
    {
      "inputs": [
        {
          "internalType": "uint256",
          "name": "_id",
          "type": "uint256"
        }
      ],
      "name": "returnBook",
      "outputs": [],
      "stateMutability": "nonpayable",
      "type": "function"
    },
    {
      "inputs": [],
      "name": "totalBooks",
      "outputs": [
        {
          "internalType": "uint256",
          "name": "",
          "type": "uint256"
        }
      ],
      "stateMutability": "view",
      "type": "function"
    }
  ],
  "bytecode": "0x608060405234801561001057600080fd5b50610e73806100206000396000f3fe608060405234801561001057600080fd5b50600436106100885760003560e01c80637e490a9e1161005b5780637e490a9e146100ea578063ca5140c9146100ff578063d8a7233e14610112578063e0ff5b8b1461012557600080fd5b8063354528e81461008d57806368744046146100ab57806368931b21146100cf5780636ec4f4bf146100e1575b600080fd5b610095610145565b6040516100a29190610a2b565b60405180910390f35b6100be6100b9366004610a8d565b610359565b6040516100a2959493929190610aa6565b6001545b6040519081526020016100a2565b6100d360015481565b6100fd6100f8366004610a8d565b6104a5565b005b6100fd61010d366004610a8d565b6105c0565b6100fd610120366004610b9a565b6106ce565b610138610133366004610a8d565b6107cd565b6040516100a29190610bfe565b6060600060015467ffffffffffffffff81111561016457610164610af7565b60405190808252806020026020018201604052801561019d57816020015b61018a610948565b8152602001906001900390816101825790505b50905060015b60015481116103535760008181526020818152604091829020825160a0810184528154815260018201546001600160a01b03169281019290925260028101805492939192918401916101f490610c18565b80601f016020809104026020016040519081016040528092919081815260200182805461022090610c18565b801561026d5780601f106102425761010080835404028352916020019161026d565b820191906000526020600020905b81548152906001019060200180831161025057829003601f168201915b5050505050815260200160038201805461028690610c18565b80601f01602080910402602001604051908101604052809291908181526020018280546102b290610c18565b80156102ff5780601f106102d4576101008083540402835291602001916102ff565b820191906000526020600020905b8154815290600101906020018083116102e257829003601f168201915b50505091835250506004919091015460ff16151560209091015282610325600184610c62565b8151811061033557610335610c7b565b6020026020010181905250808061034b90610c91565b9150506101a3565b50919050565b60006020819052908152604090208054600182015460028301805492936001600160a01b039092169261038b90610c18565b80601f01602080910402602001604051908101604052809291908181526020018280546103b790610c18565b80156104045780601f106103d957610100808354040283529160200191610404565b820191906000526020600020905b8154815290600101906020018083116103e757829003601f168201915b50505050509080600301805461041990610c18565b80601f016020809104026020016040519081016040528092919081815260200182805461044590610c18565b80156104925780601f1061046757610100808354040283529160200191610492565b820191906000526020600020905b81548152906001019060200180831161047557829003601f168201915b5050506004909301549192505060ff1685565b806000811180156104b857506001548111155b6104fb5760405162461bcd60e51b815260206004820152600f60248201526e125b9d985b1a5908189bdbdac81251608a1b60448201526064015b60405180910390fd5b60008281526020819052604090206001015482906001600160a01b031633146105365760405162461bcd60e51b81526004016104f290610caa565b60008381526020819052604090206004015460ff166105a35760405162461bcd60e51b815260206004820152602360248201527f426f6f6b206973206e6f7420617661696c61626c6520666f7220626f72726f77604482015262696e6760e81b60648201526084016104f2565b50506000908152602081905260409020600401805460ff19169055565b806000811180156105d357506001548111155b6106115760405162461bcd60e51b815260206004820152600f60248201526e125b9d985b1a5908189bdbdac81251608a1b60448201526064016104f2565b60008281526020819052604090206001015482906001600160a01b0316331461064c5760405162461bcd60e51b81526004016104f290610caa565b60008381526020819052604090206004015460ff16156106ae5760405162461bcd60e51b815260206004820152601960248201527f426f6f6b20697320616c726561647920617661696c61626c650000000000000060448201526064016104f2565b50506000908152602081905260409020600401805460ff19166001179055565b600180549060006106de83610c91565b90915550506040805160a0810182526001805480835233602080850191825284860188815260608601889052608086018590526000938452908390529490912083518155905191810180546001600160a01b0319166001600160a01b0390931692909217909155915190919060028201906107599082610d3f565b506060820151600382019061076e9082610d3f565b50608091909101516004909101805460ff19169115159190911790556001546040517f1b21a084171e969413e7fa4bdca9cc0d7e30569645a0c3625952fe3f630ef4fd906107c190859085903390610dff565b60405180910390a25050565b6107d5610948565b60008281526020818152604091829020825160a0810184528154815260018201546001600160a01b031692810192909252600281018054929391929184019161081d90610c18565b80601f016020809104026020016040519081016040528092919081815260200182805461084990610c18565b80156108965780601f1061086b57610100808354040283529160200191610896565b820191906000526020600020905b81548152906001019060200180831161087957829003601f168201915b505050505081526020016003820180546108af90610c18565b80601f01602080910402602001604051908101604052809291908181526020018280546108db90610c18565b80156109285780601f106108fd57610100808354040283529160200191610928565b820191906000526020600020905b81548152906001019060200180831161090b57829003601f168201915b50505091835250506004919091015460ff16151560209091015292915050565b6040518060a001604052806000815260200160006001600160a01b0316815260200160608152602001606081526020016000151581525090565b6000815180845260005b818110156109a85760208185018101518683018201520161098c565b506000602082860101526020601f19601f83011685010191505092915050565b8051825260018060a01b0360208201511660208301526000604082015160a060408501526109f960a0850182610982565b905060608301518482036060860152610a128282610982565b9150506080830151151560808501528091505092915050565b6000602080830181845280855180835260408601915060408160051b870101925083870160005b82811015610a8057603f19888603018452610a6e8583516109c8565b94509285019290850190600101610a52565b5092979650505050505050565b600060208284031215610a9f57600080fd5b5035919050565b8581526001600160a01b038516602082015260a060408201819052600090610ad090830186610982565b8281036060840152610ae28186610982565b91505082151560808301529695505050505050565b634e487b7160e01b600052604160045260246000fd5b600082601f830112610b1e57600080fd5b813567ffffffffffffffff80821115610b3957610b39610af7565b604051601f8301601f19908116603f01168101908282118183101715610b6157610b61610af7565b81604052838152866020858801011115610b7a57600080fd5b836020870160208301376000602085830101528094505050505092915050565b60008060408385031215610bad57600080fd5b823567ffffffffffffffff80821115610bc557600080fd5b610bd186838701610b0d565b93506020850135915080821115610be757600080fd5b50610bf485828601610b0d565b9150509250929050565b602081526000610c1160208301846109c8565b9392505050565b600181811c90821680610c2c57607f821691505b60208210810361035357634e487b7160e01b600052602260045260246000fd5b634e487b7160e01b600052601160045260246000fd5b81810381811115610c7557610c75610c4c565b92915050565b634e487b7160e01b600052603260045260246000fd5b600060018201610ca357610ca3610c4c565b5060010190565b60208082526026908201527f4f6e6c7920746865206f776e65722063616e20706572666f726d20746869732060408201526530b1ba34b7b760d11b606082015260800190565b601f821115610d3a57600081815260208120601f850160051c81016020861015610d175750805b601f850160051c820191505b81811015610d3657828155600101610d23565b5050505b505050565b815167ffffffffffffffff811115610d5957610d59610af7565b610d6d81610d678454610c18565b84610cf0565b602080601f831160018114610da25760008415610d8a5750858301515b600019600386901b1c1916600185901b178555610d36565b600085815260208120601f198616915b82811015610dd157888601518255948401946001909101908401610db2565b5085821015610def5787850151600019600388901b60f8161c191681555b5050505050600190811b01905550565b606081526000610e126060830186610982565b8281036020840152610e248186610982565b91505060018060a01b038316604083015294935050505056fea26469706673582212204c40f2495dccd8ef644a34bda0b2cacff2c88dafc7703e1eb731a1647c5c376a64736f6c63430008110033",
  "linkReferences": {},
  "deployedLinkReferences": {}
}