{
  "_format": "hh-sol-artifact-1",
  "contractName": "BookSharing",
  "sourceName": "contracts/BookSharing.sol",
  "abi": [
    {
      "anonymous": false,
      "inputs": [
        {
          "indexed": true,
          "internalType": "uint256",
          "name": "id",
          "type": "uint256"
        },
        {
          "indexed": false,
          "internalType": "string",
          "name": "title",
          "type": "string"
        },
        {
          "indexed": false,
          "internalType": "string",
          "name": "author",
          "type": "string"
        },
        {
          "indexed": false,
          "internalType": "address",
          "name": "owner",
          "type": "address"
        }
      ],
      "name": "BookAdded",
      "type": "event"
    },
    {
      "inputs": [
        {
          "internalType": "string",
          "name": "_title",
          "type": "string"
        },
        {
          "internalType": "string",
          "name": "_author",
          "type": "string"
        }
      ],
      "name": "addBook",
      "outputs": [],
      "stateMutability": "nonpayable",
      "type": "function"
    },
    {
      "inputs": [
        {
          "internalType": "uint256",
          "name": "",
          "type": "uint256"
        }
      ],
      "name": "books",
      "outputs": [
        {
          "internalType": "uint256",
          "name": "id",
          "type": "uint256"
        },
        {
          "internalType": "address",
          "name": "owner",
          "type": "address"
        },
        {
          "internalType": "string",
          "name": "title",
          "type": "string"
        },
        {
          "internalType": "string",
          "name": "author",
          "type": "string"
        },
        {
          "internalType": "bool",
          "name": "isAvailable",
          "type": "bool"
        }
      ],
      "stateMutability": "view",
      "type": "function"
    },
    {
      "inputs": [
        {
          "internalType": "uint256",
          "name": "_id",
          "type": "uint256"
        }
      ],
      "name": "borrowBook",
      "outputs": [],
      "stateMutability": "nonpayable",
      "type": "function"
    },
    {
      "inputs": [
        {
          "internalType": "uint256",
          "name": "_id",
          "type": "uint256"
        }
      ],
      "name": "returnBook",
      "outputs": [],
      "stateMutability": "nonpayable",
      "type": "function"
    },
    {
      "inputs": [],
      "name": "totalBooks",
      "outputs": [
        {
          "internalType": "uint256",
          "name": "",
          "type": "uint256"
        }
      ],
      "stateMutability": "view",
      "type": "function"
    }
  ],
  "bytecode": "0x608060405234801561001057600080fd5b50610930806100206000396000f3fe608060405234801561001057600080fd5b50600436106100575760003560e01c8063687440461461005c5780636ec4f4bf146100895780637e490a9e146100a0578063ca5140c9146100b5578063d8a7233e146100c8575b600080fd5b61006f61006a36600461054f565b6100db565b6040516100809594939291906105ae565b60405180910390f35b61009260015481565b604051908152602001610080565b6100b36100ae36600461054f565b610227565b005b6100b36100c336600461054f565b610342565b6100b36100d63660046106a2565b610450565b60006020819052908152604090208054600182015460028301805492936001600160a01b039092169261010d90610706565b80601f016020809104026020016040519081016040528092919081815260200182805461013990610706565b80156101865780601f1061015b57610100808354040283529160200191610186565b820191906000526020600020905b81548152906001019060200180831161016957829003601f168201915b50505050509080600301805461019b90610706565b80601f01602080910402602001604051908101604052809291908181526020018280546101c790610706565b80156102145780601f106101e957610100808354040283529160200191610214565b820191906000526020600020905b8154815290600101906020018083116101f757829003601f168201915b5050506004909301549192505060ff1685565b8060008111801561023a57506001548111155b61027d5760405162461bcd60e51b815260206004820152600f60248201526e125b9d985b1a5908189bdbdac81251608a1b60448201526064015b60405180910390fd5b60008281526020819052604090206001015482906001600160a01b031633146102b85760405162461bcd60e51b815260040161027490610740565b60008381526020819052604090206004015460ff166103255760405162461bcd60e51b815260206004820152602360248201527f426f6f6b206973206e6f7420617661696c61626c6520666f7220626f72726f77604482015262696e6760e81b6064820152608401610274565b50506000908152602081905260409020600401805460ff19169055565b8060008111801561035557506001548111155b6103935760405162461bcd60e51b815260206004820152600f60248201526e125b9d985b1a5908189bdbdac81251608a1b6044820152606401610274565b60008281526020819052604090206001015482906001600160a01b031633146103ce5760405162461bcd60e51b815260040161027490610740565b60008381526020819052604090206004015460ff16156104305760405162461bcd60e51b815260206004820152601960248201527f426f6f6b20697320616c726561647920617661696c61626c65000000000000006044820152606401610274565b50506000908152602081905260409020600401805460ff19166001179055565b6001805490600061046083610786565b90915550506040805160a0810182526001805480835233602080850191825284860188815260608601889052608086018590526000938452908390529490912083518155905191810180546001600160a01b0319166001600160a01b0390931692909217909155915190919060028201906104db90826107fc565b50606082015160038201906104f090826107fc565b50608091909101516004909101805460ff19169115159190911790556001546040517f1b21a084171e969413e7fa4bdca9cc0d7e30569645a0c3625952fe3f630ef4fd90610543908590859033906108bc565b60405180910390a25050565b60006020828403121561056157600080fd5b5035919050565b6000815180845260005b8181101561058e57602081850181015186830182015201610572565b506000602082860101526020601f19601f83011685010191505092915050565b8581526001600160a01b038516602082015260a0604082018190526000906105d890830186610568565b82810360608401526105ea8186610568565b91505082151560808301529695505050505050565b634e487b7160e01b600052604160045260246000fd5b600082601f83011261062657600080fd5b813567ffffffffffffffff80821115610641576106416105ff565b604051601f8301601f19908116603f01168101908282118183101715610669576106696105ff565b8160405283815286602085880101111561068257600080fd5b836020870160208301376000602085830101528094505050505092915050565b600080604083850312156106b557600080fd5b823567ffffffffffffffff808211156106cd57600080fd5b6106d986838701610615565b935060208501359150808211156106ef57600080fd5b506106fc85828601610615565b9150509250929050565b600181811c9082168061071a57607f821691505b60208210810361073a57634e487b7160e01b600052602260045260246000fd5b50919050565b60208082526026908201527f4f6e6c7920746865206f776e65722063616e20706572666f726d20746869732060408201526530b1ba34b7b760d11b606082015260800190565b6000600182016107a657634e487b7160e01b600052601160045260246000fd5b5060010190565b601f8211156107f757600081815260208120601f850160051c810160208610156107d45750805b601f850160051c820191505b818110156107f3578281556001016107e0565b5050505b505050565b815167ffffffffffffffff811115610816576108166105ff565b61082a816108248454610706565b846107ad565b602080601f83116001811461085f57600084156108475750858301515b600019600386901b1c1916600185901b1785556107f3565b600085815260208120601f198616915b8281101561088e5788860151825594840194600190910190840161086f565b50858210156108ac5787850151600019600388901b60f8161c191681555b5050505050600190811b01905550565b6060815260006108cf6060830186610568565b82810360208401526108e18186610568565b91505060018060a01b038316604083015294935050505056fea264697066735822122026e7c3c0fc9e81b144d21fe7b4c0da2bbc3b4a1d4d95ccb2490a425c3b9f637564736f6c63430008110033",
  "linkReferences": {},
  "deployedLinkReferences": {}
}